:100000000401BE6AC06A006B0085106BC40E136FDA
:100010001491149312811283200EC66E280E016F64
:10002000C86AC8841185BE880201210E126F220E93
:10003000116F110E716F100E706F1E0E156F1F0E67
:10004000146F120E3E6FBE98030E616F050E626F45
:10005000636B646B0001D56B060EDC6FDD6B090E04
:10006000DE6FDF6BD86B010ED96FDA6BDB6B050EC1
:10007000D76F830ED66F010ED56F050EDC6FDD6B6B
:100080000A0EDE6FDF6BD86B010ED96FDA6BDB6B9C
:10009000050ED76F930ED66F0001920E396F040EC6
:1000A0003A6F03011C6B060E206F100E1E6F080EB8
:1000B0001F6F9C0E1D6F296B090E2D6F200E2B6F6D
:1000C000080E2C6FC30E2A6F0301840ED76F380EF3
:1000D000F86E000EF76E000EF66E0001A80E7F6F30
:1000E0000800F5C47DF00201040E946F180E966F9F
:1000F0009E6B070E9D6F9A6B976B948F0301296B14
:100100002B8F2BBFFED70001010E966F400E926F12
:10011000060E936F860E916F0001390E636FEB0E22
:10012000646FFB0E656FD70E666FF90E676F070E73
:10013000686FF86A080EF76E000EF66E0C0E0A6E07
:1001400003EC03F00A2EFCD77FEC01F00301296BCE
:100150002B8F2BBFFED7700E2B6FB70E2A6F0E6A38
:10016000006A016A026A036A010E046E056A066A81
:10017000076ADFEC01F0030E0C6E370E0D6ECFEC4C
:1001800002F0CAEC02F0340E136E5D0E146E156AA6
:10019000166A090E176EC088C09800000000C08A59
:1001A000C09AB2EC02F0B2EC02F004015D6B0B0EEF
:1001B0005E6F5F6BD66AB490A980B89AAD8AC00EA4
:1001C000D66E0000000000000000000000000000EB
:1001D00000000000F6D7186A196A1A6A1B6A1C6ABE
:1001E0001D6A1E6A21EE00F1080E0A6E24D01BC59E
:1001F0001FF51CC520F51DC521F51EC522F50F6A8A
:1002000001EE1FF111EE1BF11B6A1C6A1D6A1E6ACA
:10021000040E096E0A0EEE02F350E62601E30F2AE1
:100220000F50E7260F6A01E30F2AF450E72601E397
:100230000F2A092EEFD711EE1BF1DE50E626000E35
:10024000E622E622E7220A2ED2D712000001296A0E
:100250007D397D250F0BD8B2160F07007DB9150F1C
:100260007DBB300F7DBD600F7DBF200F070029369D
:100270002C6E7DBF292A12000E6607D0EEEC02F02C
:10028000DFEC01F0CFEC02F085D17FEC01F0106AD9
:10029000B10E0B6EDCEC02F0050EE26E290EE16E83
:1002A000030E0A6E080EF76E220EF66E03EC03F0D4
:1002B00003EC03F026EC01F02C380F0B2A6E2C50C7
:1002C0000F0B2B6E07EC02F00A2EFCD71066120003
:1002D000102A0B2ADFD702019A95850E8C6F780EB3
:1002E0008B6F99ABFED7400E8B6F01D08B6B99ABA8
:1002F000FED78C538C53FAE19AA5FED71200080E54
:100300000A6EAF0E0B6E0B2ADCEC02F06BEC01F008
:100310000A2EF9D71200CFEC02F0090EF76E2A0E62
:10032000F66E73D10C500E0DF3C40FF53E0E0F2672
:10033000030EFA6E01E3FA2A0F501400120011EEB8
:1003400007F1E706090EE76408D1E76E11EE06F142
:10035000E706090EE76401D1E76E11EE05F1E70645
:10036000090EE764FAD0E76E11EE04F1E706090E14
:10037000E764F3D0E76E11EE03F1E706090EE764D8
:10038000ECD0E76E11EE02F1E706090EE764E5D066
:10039000E76E11EE01F1E706090EE764DED0E76EC5
:1003A00011EE00F1E706090EE764D7D011EE00F177
:1003B0000C500808096EE66A092EFDD7CED0106AE7
:1003C000B10E0B6EDCEC02F0050EE26E000EE16E7B
:1003D000080E0A6E080EF76E1E0EF66E03EC03F0A2
:1003E00003EC03F007EC02F00A2EFCD7090EF76EBF
:1003F000440EF66E105204E0160EF626000EF7229A
:1004000005EC03F010661200102A0B2ADBD7E6C4B5
:1004100008F51A0E0802F3C4F6F4F4C4F7F4260E35
:10042000F626080EF72210A0F0D00D0EF626E86A88
:10043000F722EBD0380E096E950E236EBA0E246E9D
:100440000A0E256E136A146A156A166A286A276AE4
:10045000266AD890183619361A361B361C361D36C1
:100460001E362636273628362550285C05E12450CE
:10047000275C02E12350265C0FE32350265E05E251
:1004800027062750FF0A01E128062450275E01E2D3
:1004900028062550285ED8801336143615361636B1
:1004A000092ED7D712008BEC01F00C060C0E0D268E
:1004B0005B0E0D6403D0070E0C6E0D6ECFEC02F0D8
:1004C00069D00C500E0DF3C40FF5DC0E0F26040E90
:1004D000FA6E01E3FA2A0F501400120011EE07F130
:1004E000E72A090EE76439D0E76A11EE06F1E72A38
:1004F000090EE76432D0E76A11EE05F1E72A090E2A
:10050000E7642BD0E76A11EE04F1E72A090EE764ED
:1005100024D0E76A11EE03F1E72A090EE7641DD043
:10052000E76A11EE02F1E72A090EE76416D0E76ADE
:1005300011EE01F1E72A090EE7640FD0E76A11EE28
:1005400000F1E72A090EE76408D0006E016E026E22
:10055000036E046E056E066E076EDFEC01F0EBECC9
:1005600000F068D7000101EE13F1050E096E8F6FE0
:10057000EE508E6FEE508E6F09508F61FED70906D8
:10058000010E0962F7D7979F97AFC4EF02F0C08AB8
:10059000C09A1200090EF76E700EF66E36D0B30ECA
:1005A0000B6EDCEC02F00D500F0B0B6EDCEC02F06E
:1005B0000D380F0B10090B6E02019A95020E8C6F0D
:1005C000780E8B6F99ABFED78B6B99ABFED70B5028
:1005D0008B6F99ABFED79AA5FED712000001380E9B
:1005E000456F000E446F000E436F7DC046F0030E52
:1005F000416F550E426FAA0E426F408140B1FED747
:10060000416B426B12000F6A02D0400E0F6E090060
:10061000F55002019A958C6F780E8B6F99ABFED7CF
:100620000F5002D00900F5508B6F99ABFED78C5359
:0A0630008C53F8E19AA5FED71200E2
:1008000003A83F03D300026002A102C803DA020377
:10081000814002A402A603D580038D1402AF020713
:100820000210020802120D00F0FC0E030303030E77
:10083000FCF0000D00030F1C303030301C0F0300A3
:100840000D0018080C06FFFF00000000000D00302E
:100850003030303F3F30303030000D000C1E070389
:100860000303C7FE7C00000D0030383C36363331C0
:10087000303000000D000C0E06C3C3C3C3E7BE1C1E
:10088000000D000C1C1830303030391F0F000D00E7
:100890000080E0701C0EFFFF0000000D000607073F
:1008A0000606063F3F0606000D0000FFFFC3636318
:1008B00063E3C300000D000C1C3830303030181FCB
:1008C00007000D00F0FCCE67636363E3C684000D90
:1008D00000071F1830303030381F0F000D000303A1
:1008E000030383F33B0F0300000D000000003C3FB7
:1008F0000100000000000D00009CBEE3E3C3E7BE62
:100900009C00000D000F1F3930303031391F0F00AF
:100910000D007CFEC783838383C6FCF8000D0008AE
:100920001839313131391C0F03000D00000000006F
:10093000000000000000000D0000000000000000AA
:1009400000000000160000FFFFC0C0C0C0C0FFFFD5
:1009500000001818181898D878381600003F3F0083
:10096000000000003F3F0000383C3633313030306B
:0D0970000D0003030303030303030303004F
:020B10000003E0
:020B5A0018037E
:100C000003011EBF24D01E8F296B2B8FF7C411F553
:100C1000F6C412F5D0B40FD02BBFFCD72B8F010E2A
:100C20000E66000E0E6E3CEC01F00301D0B40AD04B
:100C30002BBFFCD7F3D70E6605D053EC02F00301AF
:100C40001EBFFED711C5F7F412C5F6F41E8FB4907F
:020C5000110091
:100C6000F7C411F5F6C412F500010E660FD0D4B129
:100C700003D061EC02F002D092EC01F0B2EC02F091
:100C800011C5F7F412C5F6F4B89A1100D4B105D025
:100C90000001FF0E7D637D2B03D000017D677D0782
:100CA00047EC01F011C5F7F412C5F6F4B89A11003B
:020000040030CA
:090000008C15FEC48FC7FFFFFE42
:020000040038C2
:01000000807F
:00000001FF
